:040000000EC0FECF61
:10000400FDCFFCCFFBCFFACFF9CFF8CFF7CFF6CFA8
:10001400F5CFF4CFF3CFF2CFF1CFF894EE27ECBBCA
:10002400E5BFF8E1A895A4B7A77FA4BFF1BDE1BDE2
:100034008DE0A2E0BB27ED938A95E9F780E092E09A
:10004400A0E6ED930197E9F7E0E0E1BBE2BBE3BB97
:10005400EFE5EDBFE2E0EEBFC0EED0E000C017D0A8
:10006400B19B0EC0E9B5E63A18F0E5EAE9BD07C070
:10007400E9B5EF5FE9BDE150A2E0B0E017D002C0FE
:10008400E1E4E9BDA4EFB1E011D0EACFFFCFE5E8A8
:10009400E6BDE0E0E8BBE1E0E7BBE3E8EABDE4E0BD
:1000A400E3BFE0E0E2BFE9BDE8BD0895109639F092
:1000B40080ED97E00197F1F7A8951197C9F7089596
:00000001FF
